{"abi":[{"type":"constructor","inputs":[{"name":"_tokenAddress","type":"address","internalType":"address"},{"name":"_requiredApprovals","type":"uint256","internalType":"uint256"}],"stateMutability":"nonpayable"},{"type":"function","name":"addSigner","inputs":[{"name":"_signer","type":"address","internalType":"address"}],"outputs":[],"stateMutability":"nonpayable"},{"type":"function","name":"approveRelease","inputs":[{"name":"_requestId","type":"uint256","internalType":"uint256"}],"outputs":[],"stateMutability":"nonpayable"},{"type":"function","name":"calculateReleasableAmount","inputs":[],"outputs":[{"name":"","type":"uint256","internalType":"uint256"}],"stateMutability":"view"},{"type":"function","name":"changeRequiredApprovals","inputs":[{"name":"_requiredApprovals","type":"uint256","internalType":"uint256"}],"outputs":[],"stateMutability":"nonpayable"},{"type":"function","name":"createVestingSchedule","inputs":[{"name":"_beneficiary","type":"address","internalType":"address"},{"name":"_totalAmount","type":"uint256","internalType":"uint256"},{"name":"_startTime","type":"uint256","internalType":"uint256"},{"name":"_duration","type":"uint256","internalType":"uint256"},{"name":"_cliff","type":"uint256","internalType":"uint256"}],"outputs":[],"stateMutability":"nonpayable"},{"type":"function","name":"isSigner","inputs":[{"name":"","type":"address","internalType":"address"}],"outputs":[{"name":"","type":"bool","internalType":"bool"}],"stateMutability":"view"},{"type":"function","name":"nextRequestId","inputs":[],"outputs":[{"name":"","type":"uint256","internalType":"uint256"}],"stateMutability":"view"},{"type":"function","name":"owner","inputs":[],"outputs":[{"name":"","type":"address","internalType":"address"}],"stateMutability":"view"},{"type":"function","name":"releaseRequests","inputs":[{"name":"","type":"uint256","internalType":"uint256"}],"outputs":[{"name":"requestId","type":"uint256","internalType":"uint256"},{"name":"amount","type":"uint256","internalType":"uint256"},{"name":"approvalCount","type":"uint256","internalType":"uint256"},{"name":"executed","type":"bool","internalType":"bool"}],"stateMutability":"view"},{"type":"function","name":"removeSigner","inputs":[{"name":"_signer","type":"address","internalType":"address"}],"outputs":[],"stateMutability":"nonpayable"},{"type":"function","name":"requestRelease","inputs":[{"name":"_amount","type":"uint256","internalType":"uint256"}],"outputs":[],"stateMutability":"nonpayable"},{"type":"function","name":"requiredApprovals","inputs":[],"outputs":[{"name":"","type":"uint256","internalType":"uint256"}],"stateMutability":"view"},{"type":"function","name":"revoke","inputs":[],"outputs":[],"stateMutability":"nonpayable"},{"type":"function","name":"signerCount","inputs":[],"outputs":[{"name":"","type":"uint256","internalType":"uint256"}],"stateMutability":"view"},{"type":"function","name":"tokenAddress","inputs":[],"outputs":[{"name":"","type":"address","internalType":"address"}],"stateMutability":"view"},{"type":"function","name":"vestingSchedule","inputs":[],"outputs":[{"name":"beneficiary","type":"address","internalType":"address"},{"name":"totalAmount","type":"uint256","internalType":"uint256"},{"name":"startTime","type":"uint256","internalType":"uint256"},{"name":"duration","type":"uint256","internalType":"uint256"},{"name":"releasedAmount","type":"uint256","internalType":"uint256"},{"name":"cliff","type":"uint256","internalType":"uint256"},{"name":"revoked","type":"bool","internalType":"bool"}],"stateMutability":"view"},{"type":"event","name":"ReleaseApproved","inputs":[{"name":"requestId","type":"uint256","indexed":true,"internalType":"uint256"},{"name":"signer","type":"address","indexed":true,"internalType":"address"}],"anonymous":false},{"type":"event","name":"ReleaseRequested","inputs":[{"name":"requestId","type":"uint256","indexed":true,"internalType":"uint256"},{"name":"amount","type":"uint256","indexed":false,"internalType":"uint256"}],"anonymous":false},{"type":"event","name":"SignerAdded","inputs":[{"name":"signer","type":"address","indexed":true,"internalType":"address"}],"anonymous":false},{"type":"event","name":"SignerRemoved","inputs":[{"name":"signer","type":"address","indexed":true,"internalType":"address"}],"anonymous":false},{"type":"event","name":"TokensReleased","inputs":[{"name":"requestId","type":"uint256","indexed":true,"internalType":"uint256"},{"name":"beneficiary","type":"address","indexed":true,"internalType":"address"},{"name":"amount","type":"uint256","indexed":false,"internalType":"uint256"}],"anonymous":false},{"type":"event","name":"VestingRevoked","inputs":[{"name":"beneficiary","type":"address","indexed":true,"internalType":"address"},{"name":"unreleasedAmount","type":"uint256","indexed":false,"internalType":"uint256"}],"anonymous":false},{"type":"event","name":"VestingScheduleCreated","inputs":[{"name":"beneficiary","type":"address","indexed":true,"internalType":"address"},{"name":"totalAmount","type":"uint256","indexed":false,"internalType":"uint256"},{"name":"startTime","type":"uint256","indexed":false,"internalType":"uint256"},{"name":"duration","type":"uint256","indexed":false,"internalType":"uint256"},{"name":"cliff","type":"uint256","indexed":false,"internalType":"uint256"}],"anonymous":false}],"bytecode":{"object":"0x608060405234801561000f575f5ffd5b5060405161151338038061151383398101604081905261002e91610165565b6001600160a01b0382166100895760405162461bcd60e51b815260206004820152601c60248201527f546f6b656e20616464726573732063616e6e6f74206265207a65726f0000000060448201526064015b60405180910390fd5b5f81116100ed5760405162461bcd60e51b815260206004820152602c60248201527f526571756972656420617070726f76616c73206d75737420626520677265617460448201526b6572207468616e207a65726f60a01b6064820152608401610080565b5f8054336001600160a01b031991821681178355600180549092166001600160a01b038616178255600284905580835260056020526040808420805460ff191684179055600392909255905190917f47d1c22a25bb3a5d4e481b9b1e6944c2eade3181a0a20b495ed61d35b5323f2491a2505061019c565b5f5f60408385031215610176575f5ffd5b82516001600160a01b038116811461018c575f5ffd5b6020939093015192949293505050565b61136a806101a95f395ff3fe608060405234801561000f575f5ffd5b50600436106100fb575f3560e01c80637df73e27116100935780639d76ea58116100635780639d76ea5814610261578063a9660d0014610274578063b6549f75146102cd578063eb12d61e146102d5575f5ffd5b80637df73e27146101e95780638da5cb5b1461021b57806399c1aadc146102455780639b96c6831461024e575f5ffd5b80631bf0b08b116100ce5780631bf0b08b146101555780634b680444146101685780636a84a985146101d75780637ca548c6146101e0575f5ffd5b8063063d36a4146100ff5780630b484b15146101145780630e316ab71461012f5780631bd2cea114610142575b5f5ffd5b61011261010d3660046110e7565b6102e8565b005b61011c61051f565b6040519081526020015b60405180910390f35b61011261013d366004611119565b6105d1565b6101126101503660046110e7565b610742565b610112610163366004611139565b6108ad565b600754600854600954600a54600b54600c54600d54610196966001600160a01b031695949392919060ff1687565b604080516001600160a01b0390981688526020880196909652948601939093526060850191909152608084015260a0830152151560c082015260e001610126565b61011c60045481565b61011c60035481565b61020b6101f7366004611119565b60056020525f908152604090205460ff1681565b6040519015158152602001610126565b5f5461022d906001600160a01b031681565b6040516001600160a01b039091168152602001610126565b61011c60025481565b61011261025c3660046110e7565b610b66565b60015461022d906001600160a01b031681565b6102ab6102823660046110e7565b60066020525f908152604090208054600182015460028301546003909301549192909160ff1684565b6040805194855260208501939093529183015215156060820152608001610126565b610112610c60565b6101126102e3366004611119565b610dd7565b335f9081526005602052604090205460ff1661031f5760405162461bcd60e51b815260040161031690611177565b60405180910390fd5b600d5460ff16156103425760405162461bcd60e51b8152600401610316906111b9565b6008546103915760405162461bcd60e51b815260206004820152601a60248201527f4e6f2076657374696e67207363686564756c65206578697374730000000000006044820152606401610316565b5f81116103e05760405162461bcd60e51b815260206004820181905260248201527f416d6f756e74206d7573742062652067726561746572207468616e207a65726f6044820152606401610316565b6103e861051f565b81111561044a5760405162461bcd60e51b815260206004820152602a60248201527f52657175657374656420616d6f756e7420657863656564732072656c65617361604482015269189b1948185b5bdd5b9d60b21b6064820152608401610316565b600480545f918261045a83611204565b909155505f81815260066020908152604080832084815560018082018890556002820181905560038201805460ff199081169091553386526004830185529483902080549095161790935551858152929350909183917f14f6b0404f57c404de2acf937fd11856c093a3a1c716aecfcc3eae59b499f4c0910160405180910390a2604051339083907f492f404869834bbfb3dfd354d8ebd27ca988aa59eda4724d2e604400e1635df0905f90a360025460010361051a5761051a82610f29565b505050565b600d545f9060ff16156105445760405162461bcd60e51b8152600401610316906111b9565b600c54600954610554919061121c565b42101561056057505f90565b600a54600954610570919061121c565b421061058b57600b546008546105869190611235565b905090565b6009545f9061059a9042611235565b600a546008549192505f916105b0908490611248565b6105ba919061125f565b600b549091506105ca9082611235565b9250505090565b5f546001600160a01b031633146105fa5760405162461bcd60e51b81526004016103169061127e565b6001600160a01b0381165f9081526005602052604090205460ff166106615760405162461bcd60e51b815260206004820152601760248201527f41646472657373206973206e6f742061207369676e65720000000000000000006044820152606401610316565b600254600354116106da5760405162461bcd60e51b815260206004820152603f60248201527f43616e6e6f742072656d6f7665207369676e65723a206d696e696d756d20726560448201527f717569726564207369676e65727320776f756c64206e6f74206265206d6574006064820152608401610316565b6001600160a01b0381165f908152600560205260408120805460ff191690556003805491610707836112bf565b90915550506040516001600160a01b038216907f3525e22824a8a7df2c9a6029941c824cf95b6447f1e13d5128fd3826d35afe8b905f90a250565b335f9081526005602052604090205460ff166107705760405162461bcd60e51b815260040161031690611177565b600d5460ff16156107935760405162461bcd60e51b8152600401610316906111b9565b5f818152600660205260409020600381015460ff16156107c55760405162461bcd60e51b8152600401610316906112d4565b335f90815260048201602052604090205460ff16156108375760405162461bcd60e51b815260206004820152602860248201527f5369676e65722068617320616c726561647920617070726f7665642074686973604482015267081c995c5d595cdd60c21b6064820152608401610316565b335f9081526004820160205260408120805460ff191660011790556002820180549161086283611204565b9091555050604051339083907f492f404869834bbfb3dfd354d8ebd27ca988aa59eda4724d2e604400e1635df0905f90a36002548160020154106108a9576108a982610f29565b5050565b5f546001600160a01b031633146108d65760405162461bcd60e51b81526004016103169061127e565b6001600160a01b0385166109375760405162461bcd60e51b815260206004820152602260248201527f42656e656669636961727920616464726573732063616e6e6f74206265207a65604482015261726f60f01b6064820152608401610316565b5f84116109955760405162461bcd60e51b815260206004820152602660248201527f546f74616c20616d6f756e74206d7573742062652067726561746572207468616044820152656e207a65726f60d01b6064820152608401610316565b5f82116109ef5760405162461bcd60e51b815260206004820152602260248201527f4475726174696f6e206d7573742062652067726561746572207468616e207a65604482015261726f60f01b6064820152608401610316565b81811115610a545760405162461bcd60e51b815260206004820152602c60248201527f436c696666206d757374206265206c657373207468616e206f7220657175616c60448201526b103a3790323ab930ba34b7b760a11b6064820152608401610316565b60085415610aa45760405162461bcd60e51b815260206004820152601f60248201527f56657374696e67207363686564756c6520616c726561647920657869737473006044820152606401610316565b6040805160e0810182526001600160a01b038716808252602080830188905282840187905260608084018790525f608080860182905260a0860188905260c0909501819052600780546001600160a01b0319168517905560088a90556009899055600a889055600b55600c869055600d805460ff191690558451898152918201889052938101869052928301849052917f47d46f58c7d60d60571092cff5715b8c8c5bc1347db2bb9890e639bf3680ba7b910160405180910390a25050505050565b5f546001600160a01b03163314610b8f5760405162461bcd60e51b81526004016103169061127e565b5f8111610bf35760405162461bcd60e51b815260206004820152602c60248201527f526571756972656420617070726f76616c73206d75737420626520677265617460448201526b6572207468616e207a65726f60a01b6064820152608401610316565b600354811115610c5b5760405162461bcd60e51b815260206004820152602d60248201527f526571756972656420617070726f76616c732063616e6e6f742065786365656460448201526c081cda59db995c8818dbdd5b9d609a1b6064820152608401610316565b600255565b5f546001600160a01b03163314610c895760405162461bcd60e51b81526004016103169061127e565b600d5460ff1615610cac5760405162461bcd60e51b8152600401610316906111b9565b600d805460ff19166001179055600b546008545f91610cca91611235565b90508015610d92576001545f805460405163a9059cbb60e01b81526001600160a01b039182166004820152602481018590529192169063a9059cbb906044016020604051808303815f875af1158015610d25573d5f5f3e3d5ffd5b505050506040513d601f19601f82011682018060405250810190610d499190611315565b905080610d905760405162461bcd60e51b8152602060048201526015602482015274151bdad95b881d1c985b9cd9995c8819985a5b1959605a1b6044820152606401610316565b505b6007546040518281526001600160a01b03909116907f57c76f5e278bfbd4eeb5207d287aa5a1a9e1113c65f7eefa540e379a2774d13b9060200160405180910390a250565b5f546001600160a01b03163314610e005760405162461bcd60e51b81526004016103169061127e565b6001600160a01b038116610e565760405162461bcd60e51b815260206004820152601d60248201527f5369676e657220616464726573732063616e6e6f74206265207a65726f0000006044820152606401610316565b6001600160a01b0381165f9081526005602052604090205460ff1615610ebe5760405162461bcd60e51b815260206004820152601b60248201527f4164647265737320697320616c72656164792061207369676e657200000000006044820152606401610316565b6001600160a01b0381165f908152600560205260408120805460ff191660011790556003805491610eee83611204565b90915550506040516001600160a01b038216907f47d1c22a25bb3a5d4e481b9b1e6944c2eade3181a0a20b495ed61d35b5323f24905f90a250565b5f818152600660205260409020600381015460ff1615610f5b5760405162461bcd60e51b8152600401610316906112d4565b60025481600201541015610fa85760405162461bcd60e51b81526020600482015260146024820152734e6f7420656e6f75676820617070726f76616c7360601b6044820152606401610316565b60038101805460ff19166001908117909155810154600b80545f90610fce90849061121c565b9091555050600180546007549183015460405163a9059cbb60e01b81526001600160a01b03938416600482015260248101919091525f929091169063a9059cbb906044016020604051808303815f875af115801561102e573d5f5f3e3d5ffd5b505050506040513d601f19601f820116820180604052508101906110529190611315565b9050806110995760405162461bcd60e51b8152602060048201526015602482015274151bdad95b881d1c985b9cd9995c8819985a5b1959605a1b6044820152606401610316565b60075460018301546040519081526001600160a01b039091169084907fa6c812047c4dc10f52f9e7943b1b3dfafae864d5e0d4ded081bbbde69dd6ff0d9060200160405180910390a3505050565b5f602082840312156110f7575f5ffd5b5035919050565b80356001600160a01b0381168114611114575f5ffd5b919050565b5f60208284031215611129575f5ffd5b611132826110fe565b9392505050565b5f5f5f5f5f60a0868803121561114d575f5ffd5b611156866110fe565b97602087013597506040870135966060810135965060800135945092505050565b60208082526022908201527f4f6e6c79207369676e65722063616e2063616c6c20746869732066756e63746960408201526137b760f11b606082015260800190565b60208082526018908201527f56657374696e6720686173206265656e207265766f6b65640000000000000000604082015260600190565b634e487b7160e01b5f52601160045260245ffd5b5f60018201611215576112156111f0565b5060010190565b8082018082111561122f5761122f6111f0565b92915050565b8181038181111561122f5761122f6111f0565b808202811582820484141761122f5761122f6111f0565b5f8261127957634e487b7160e01b5f52601260045260245ffd5b500490565b60208082526021908201527f4f6e6c79206f776e65722063616e2063616c6c20746869732066756e6374696f6040820152603760f91b606082015260800190565b5f816112cd576112cd6111f0565b505f190190565b60208082526021908201527f526571756573742068617320616c7265616479206265656e20657865637574656040820152601960fa1b606082015260800190565b5f60208284031215611325575f5ffd5b81518015158114611132575f5ffdfea2646970667358221220bf5d4bcbef5182f557cdb83b28e0bda3a89fd1a777ccf1ca93de3b1c5b4fadd064736f6c634300081c0033","linkReferences":{}},"methodIdentifiers":{"addSigner(address)":"eb12d61e","approveRelease(uint256)":"1bd2cea1","calculateReleasableAmount()":"0b484b15","changeRequiredApprovals(uint256)":"9b96c683","createVestingSchedule(address,uint256,uint256,uint256,uint256)":"1bf0b08b","isSigner(address)":"7df73e27","nextRequestId()":"6a84a985","owner()":"8da5cb5b","releaseRequests(uint256)":"a9660d00","removeSigner(address)":"0e316ab7","requestRelease(uint256)":"063d36a4","requiredApprovals()":"99c1aadc","revoke()":"b6549f75","signerCount()":"7ca548c6","tokenAddress()":"9d76ea58","vestingSchedule()":"4b680444"},"id":20}